:1000000000000320D1010000290F0000E10E0000D4
:10001000E10E0000E10E0000E10E0000E10E000024
:10002000E10E0000E10E0000E10E0000290F0000CB
:10003000290F0000E10E0000B10A0000B50A00001F
:10004000290F0000290F0000290F0000290F0000D0
:10005000290F0000290F0000290F0000290F0000C0
:10006000290F0000290F0000290F0000290F0000B0
:10007000290F0000290F0000290F0000290F0000A0
:10008000290F0000290F0000290F0000290F000090
:10009000290F0000290F0000290F0000290F000080
:1000A000290F0000290F0000290F0000290F000070
:1000B000290F0000290F0000290F0000290F000060
:1000C000290F0000290F0000290F0000290F000050
:1000D000290F0000290F0000290F0000290F000040
:1000E000290F0000290F0000290F0000290F000030
:1000F000290F0000290F0000290F0000290F000020
:10010000290F0000290F0000290F0000290F00000F
:10011000290F0000B9140000290F0000290F00006A
:10012000290F0000290F0000290F0000290F0000EF
:10013000290F0000290F0000290F0000290F0000DF
:10014000290F0000290F0000290F0000290F0000CF
:10015000290F0000290F0000290F0000290F0000BF
:10016000290F0000290F0000290F0000290F0000AF
:10017000290F0000290F0000290F0000290F00009F
:10018000290F0000290F0000290F0000290F00008F
:10019000290F0000290F0000290F0000290F00007F
:1001A000290F0000290F0000290F0000290F00006F
:1001B000290F0000290F0000290F0000290F00005F
:1001C000290F0000290F0000290F0000290F00004F
:1001D0005C4B4CF2205210B51A804DF628121A8052
:1001E00000BF00BF00F0A4FE574B4FF030621A6012
:1001F000564A9A60564ADA60564B4FF470021A60BB
:10020000554B564A1A60564B1A78110703D51A787F
:1002100042F008021A70534B5349AA221A70534AEB
:10022000534B8B4204D252F8040F43F8040BF8E707
:10023000504B514900228B4202D243F8042BFAE77B
:100240004E494F4A002352F8230041F8230001335E
:10025000742BF8D14B4B4C4A802103F8011B93427D
:10026000FBD14A4B454A1A60494B8A221A70A3F5C2
:10027000805324225A70A0221A709A799207FCD5D2
:100280009A79D406FCD4434A937903F00C03082BE3
:10029000FAD1414B60221A7002331A78802AFCD1BD
:1002A0003C4B01221A715D225A719A799006FCD555
:1002B0009979384A4906FBD5384B394919600021EC
:1002C000596020231370937903F00C030C2BFAD19F
:1002D000344B354A1A60354A354C136813F4807331
:1002E00003D123604FF4A8531360324B324A1A6093
:1002F00000225A60072243F8042C304AC3F80C2D20
:1003000062B600F003FF2368DA0705D52C4800F039
:10031000E9FE2C4B2C4A1A602C4B1B785B0609D546
:10032000284C294B22689A4204D1254800F0DAFE75
:100330000023236000F002FE02F02CFD00F0F4FC2C
:10034000FEE700BF0E20054030800440823F0400DD
:100350000100002B88ED00E0002008E0030000858C
:1003600002D0074000E007406C10FF1F303B000048
:100370003007FF1F6C10FF1F1412FF1F0002FF1F2A
:100380000000000000E400E064E400E008ED00E0AC
:10039000005006400040064001E007404480044011
:1003A0000000060204800440C010070010D0034083
:1003B00014D0034014E000E01FBF02000000202022
:1003C000B89EC9631CE00340A5C3945A00F00740DF
:1003D000FFFFFFFFFFFFFFFFFFFFFFFFFFFFFFFF2D
:1003E000FFFFFFFFFFFFFFFFFFFFFFFFFFFFFFFF1D
:1003F000FFFFFFFFFFFFFFFFFFFFFFFFFFFFFFFF0D
:10040000FFFFFFFFFFFFFFFFFFFFFFFFDEF9FFFF23
:1004100010B5054C237833B9044B13B10448AFF33E
:1004200000800123237010BD6C10FF1F000000002E
:10043000343B0000084B10B51BB108490848AFF326
:1004400000800848036803B910BD074B002BFBD0A0
:10045000BDE81040184700BF000000007010FF1FEB
:10046000343B00006C10FF1F0000000008B5132192
:10047000034801F083FD0348BDE8084000F022BBBB
:10048000E83600007407FF1F10B4054C017000210E
:10049000846082714170817081805DF8044B704787
:1004A000032000388379002210B50446C2710BB1D5
:1004B000FFF7DCFF054B2078A360012100F0ECFE84
:1004C0000348BDE8104000F053BA00BF0100023AF3
:1004D0003007FF1FF8B541F480460F460546324607
:1004E0001024002112F0010F18BF013104F1FF3375
:1004F00018BFC9B213F0FF044FEA5202F2D1AB7930
:1005000001F0010146EAC136002B40F0A3805D4CAA
:10051000A968E37A03B372B6E37ADF071A4606D511
:100520005948E26807683A40E26102601A46980753
:1005300006D5564823690768E27A3B402362036088
:10054000530706D5524863690768E27A3B40636205
:100550000360170777D462B62368DA688A4207D047
:100560004C4818604C4AD96041F0804018611A60CC
:100570000021287800F08AFE226846F080514FF072
:100580000043D3625163D36A002BFCDA012128783F
:10059000936B00F07BFEE87900F084FE0021287860
:1005A00000F074FE22684FF000414FF08053D1629A
:1005B0005363D36A002BFCDA01212878966B00F094
:1005C00065FEE37A2F49B6B21A46B3B1D80703D510
:1005D000324AC96911601A469F0703D5304B216A18
:1005E000E27A1960500703D52E4B616AE27A1960EE
:1005F000110702D52C4BA26A1A60AB7933B9730488
:100600001CD400236B70C6F30D00F8BD0F212748E2
:1006100001F0B4FC022200233146254800F066FABE
:10062000234800F04FFA7204EBD5AB7933B11121B6
:10063000204801F0A3FC1E4800F044FA01236B702F
:10064000C6F30D00F8BD1C4AA36910680340A362FD
:10065000136080E70821194801F090FC23463946D1
:100660001022134800F042FA1221154801F086FCCE
:100670002346022231460E4800F038FA0C4800F0BA
:1006800021FA44E73007FF1F80E100E084E100E049
:1006900088E100E001403F0000003F8000E100E011
:1006A00004E100E008E100E00CE100E01C3700009C
:1006B0007407FF1F2C3700008CE100E0FC360000BF
:1006C00008370000FFFFFFFFD0B543F6FF71044677
:1006D000FFF700FFA488001B84B220B201F0CEFF18
:1006E00014A3D3E9002306460F4602F0BDFA38B141
:1006F000A4F57F503F3800B201F0C0FF06460F4618
:100700000CA3D3E900233046394601F06BFE0022EA
:10071000074B02F019F804A3D3E9002302F03EF9D5
:1007200041EC100BD0BD00BF0000000000FFCF4027
:10073000008076400000000000FFBF402DE9F84334
:10074000642000F0AFFD174D174C184FDFF8649090
:1007500001210D2000F0A0FD1548FFF7A3FE40F297
:10076000EE282E6804E0B3F5FA6F19D801F00AFDFF
:1007700001F008FD237843B13B78DB0705D52B68F2
:10078000D9F800209B1A0E2B08D82B6822789B1BC7
:10079000002AE8D14345E9D9BDE8F883BDE8F883EC
:1007A000BDE8F883AC10FF1F9011FF1FA811FF1FB9
:1007B0008810FF1F0C12FF1F10B5124A1248136851
:1007C000124CB3FA83F382B05B091360FFF77CFF2E
:1007D00064208DED000B00F065FD9DED000B51ECEC
:1007E000100B02F081FA01F05BFF41EC100B204688
:1007F000022100F0BDF9204602B0BDE8104000F033
:1008000061B900BF9410FF1F8810FF1F7407FF1FFE
:1008100000220A210148FFF737BE00BF8810FF1FE2
:1008200010B4047F4160022CC26003D05DF8044B19
:1008300000F0DCB883685DF8044B1847F0B4464B11
:10084000464A986B5C6B01791170454922790A70B0
:100850001A6B00790870002A46D05968C9688A4224
:100860003ED82168CC8B240402F1FF3065D4C0F35C
:100870000E00C883C88B80B2C882996B0968C88B88
:10088000000452D4C2F30E00C883C88B002480B287
:1008900012F1FF32C88218BF01221C63596B2E4827
:1008A00009680D6800F12C04A54236D00068C468C0
:1008B00014F0804F0C680D6815BF24882478023529
:1008C000013544F000440D604463996B254B097970
:1008D0001970214912B14A6B12791A70F0BC704735
:1008E000521A1A630122D9E7D86B196805681E4CA1
:1008F0000A63CC62CC682D681C4E24F08044032728
:10090000B542CC6083F82D701FD1037F4260022B6B
:10091000C2601ED0F0BC00F069B8016890F82C00ED
:10092000CC6840F000404863CFE7CC8BC2F30800AE
:1009300004F47E442043C883A7E7CC8BC0F30800AF
:1009400004F47E442043C88394E72B461146F0BC50
:1009500018478368F0BC18473007FF1F1F8000400E
:100960001C8000401B80004000000FFF2108000099
:1009700090E80C00F0B41C6859682568164F174EB3
:1009800029432160164D17491760D6601561116023
:10099000417A154A5C180C3194F82C4053F82150D8
:1009A00002EBC40149680D60017A5C1803EB810118
:1009B000247ECD6902EBC40149680D60817A581824
:1009C00003EB810390F84000596C02EBC002F0BCCD
:1009D00053681960704700BF01401F0001100038C4
:1009E0000110007800001F809438000010B4EFF36D
:1009F000108272B6437F33B9017F012908D00329E1
:100A000010D00123437702B962B65DF8044B7047FA
:100A1000114C2168A1B1114943610B6883610860E1
:100A20005861EEE70E4C216881B10E4943610B68B5
:100A30008361086058610C4B4FF080511960E0E70A
:100A4000064B4161816120601860DAE7054B416126
:100A5000816120601860EEE7A410FF1FA010FF1F47
:100A60009810FF1F9C10FF1F04ED00E070B5EFF31E
:100A7000108272B60C4C206880B10C4E0025436980
:100A8000236073B19D6102B962B645778368984768
:100A9000EFF3108272B620680028F0D102B962B676
:100AA00070BD3360EFE700BF9810FF1F9C10FF1F61
:100AB000FFF7DCBF024A136801331360704700BFC1
:100AC000AC10FF1F30B5044683B002252A4601A8AA
:100AD000054900F031F923682A4601A95B682046E0
:100AE000984703B030BD00BF84380000F0B507461A
:100AF0008BB0002A33D0012A08BF0A2251B3212427
:100B000000E0F4B2B1FBF2F502FB1511C8B20929FD
:100B100000F1300198BFC8B20AA988BF373021441C
:100B200088BFC0B201F8240C661E2946002DE8D10A
:100B300033B1013CE4B20AAB23442D2203F8242C48
:100B40003B6801AA11195B683846C4F12202984734
:100B50000BB0F0BD30228DF825202124E8E7036892
:100B6000C9B21B6898470BB0F0BD00BFFFFFFFFF85
:100B70002DE9F04357EC106B85B005460C4610EE9E
:100B8000102A3B4610EE100A394602F077F800288A
:100B900040F0B28027F00049304649464FF0FF321E
:100BA000594B02F06BF890B9304649464FF0FF328E
:100BB000554B02F045F850B92B6854495B682846FC
:100BC000032298478046404605B0BDE8F0834FF0C9
:100BD00060424F4B3046394602F046F8002872D149
:100BE0004FF060424B4B3046394602F01FF8002868
:100BF00069D1002200233046394602F017F8002858
:100C000064D18146002C67D0434900204FF0000892
:100C10003BA3D3E9002308F1010801F095FD5FFA39
:100C200088F39C42F4D802460B463046394601F020
:100C3000D9FB0F46064602F037F8804601F00EFD5C
:100C400002460B463046394601F0CAFB4B46064683
:100C50000F460A2241462846FFF748FF0F2C28BFBF
:100C60000F2404F101092E2380465FFA89F98DF8DB
:100C7000003001240022294B3046394601F064FD42
:100C80000F46064602F010F804AB2344C0B200F150
:100C9000300203F8102C01F0F1FC02460B463046FE
:100CA000394601F09DFB0134E4B24C4506460F463F
:100CB000E0D12B6822465B68284669469847404643
:100CC00005B0BDE8F0832B68154977E707F10043CD
:100CD0001F464FF0010995E700220F4B3046394679
:100CE00001F080FB01F0E0FF4B4601460A22284656
:100CF000FFF7FCFE804666E72B680A495EE700BF07
:100D0000000000A09999B93FFFFFEF7F90380000E5
:100D1000FFFFEF41FFFFEFC10000E03F0000244074
:100D20008C3800008838000008B5FFF707FDFFF792
:100D300043FD01F027FAFAE701B441EA000313F09A
:100D400003036FD1403A41D351F8043B40F8043BD0
:100D500051F8043B40F8043B51F8043B40F8043B95
:100D600051F8043B40F8043B51F8043B40F8043B85
:100D700051F8043B40F8043B51F8043B40F8043B75
:100D800051F8043B40F8043B51F8043B40F8043B65
:100D900051F8043B40F8043B51F8043B40F8043B55
:100DA00051F8043B40F8043B51F8043B40F8043B45
:100DB00051F8043B40F8043B51F8043B40F8043B35
:100DC00051F8043B40F8043B403ABDD2303211D3D5
:100DD00051F8043B40F8043B51F8043B40F8043B15
:100DE00051F8043B40F8043B51F8043B40F8043B05
:100DF000103AEDD20C3205D351F8043B40F8043BD5
:100E0000043AF9D204320AD0D2071CBF11F8013BD0
:100E100000F8013B03D30B7803704B78437001BC9F
:100E2000704700BF0C2A4AD310F0030311D0C3F15E
:100E30000403D21ADB071CBF11F8013B00F8013B89
:100E400007D311F8013B00F8013B11F8013B00F812
:100E5000013B11F003033FF475AF30B4043AC91AF3
:100E6000C3F1040C51F8044B022B19D0032B0BD007
:100E7000240A51F8043B1D0644EA050440F8044BDB
:100E80001C46043AF4D216E0240E51F8043B1D022D
:100E900044EA050440F8044B1C46043AF4D20AE044
:100EA000240C51F8043B1D0444EA050440F8044BAB
:100EB0001C46043AF4D20432B1EB0C0130BC043AC3
:100EC000A0D3013A11F8013B00F8013BF9D20B78AD
:100ED00003704B7843708B78837001BC704700BF00
:100EE00008B5104C08E0236859050DD423681A058D
:100EF0000FD42368DB0411D423685803F3D500F022
:100F0000DBFA23685905F1D500F00EF823681A05BD
:100F1000EFD500F009F82368DB04EDD500F004F804
:100F2000EAE700BF3480044008B5FFF7D9FF00BFEF
:100F3000014B10221A80704700200540704700BF07
:100F4000094908B50B6830B16A461844A2F5005249
:100F5000904202D20860184608BD01F015FF0C232C
:100F600003604FF0FF3008BD7007FF1F084A137879
:100F7000802B01D0002070470649074B07480860C6
:100F8000002119701378802BFCD00120704700BF1E
:100F900003E007404480044001E0074000002822AD
:100FA000094A1378012B01D00020704703F18043D8
:100FB00003F5FC23602119701378802BFCD1034BBF
:100FC000034A1A600120704703E007404480044050
:100FD00000000602F0B44D1E2E46002400E001344D
:100FE000B0FBF2F302FB1300092800F130078ABFBF
:100FF0003730F8B2C0B206F8010F1846002BEED118
:101000000A1953704CB1107815F8016F287001332C
:10101000E01A834202F80169F5DB0846F0BC70472C
:1010200010B4114B53F8302092F8804234B10123B0
:1010300079B182F880305DF8044B704703EBC00350
:101040005B681A6851B922F002021A605DF8044B1D
:10105000704782F800315DF8044B704742F003029C
:101060001A605DF8044B7047943800001C4A02EB8C
:10107000C00301295B6811D004291BD052F830004D
:10108000002280F8802229B1022920D0032922D011
:101090001A6070474FF480721A60704752F830003F
:1010A0004FF4A27280F880121A601A6822F02002AF
:1010B0001A60704752F830104FF4A272012081F884
:1010C00080021A601A6842F020021A60704740F2EB
:1010D00003121A6070474FF481721A60704700BFA4
:1010E0009438000030B4054B054D064C0022102109
:1010F0001A602A602060196030BC704714D0034029
:1011000004D0034000D00340704700BF524B534807
:10111000DFF870C152494FF00062F0B51A604FF02D
:1011200080521A604FF000521A604FF080421A60ED
:101130004FF000421A604B4CDFF84CE14A4E4B4DE9
:101140004B4F0022026028234EF6FF70CCF80000BF
:10115000CEF8003023600EF5012E0B6033602B605B
:1011600006F500263B6005F50025A36207F500277C
:101170008B6204F5012401F5012106F6E87605F6F7
:10118000E87507F57F6710310EF1100E20343360DB
:101190002B60CEF800303B600B602360354CBB61A8
:1011A0008B6109212160A7F5002704F58054203FB9
:1011B00008343A602060BB60E36047F8041C04F523
:1011C000FD2407F5FE27043704F2FC742260386022
:1011D000A360FB6044F8041C083404F6FC74C7F8F0
:1011E000FC2F2060A4F5E124A4F2DC7433602B60B2
:1011F000C7F8F81F2168204841F400712160016898
:101200001E4C0EF57F4E0EF1E80E41F0007107F511
:10121000883706F5803605F580350160CEF8002068
:1012200047F6FF710822396083B033602B6022607B
:1012300001F01EF8FFF768FF114C23680093009B34
:10124000132BFAD900F072FD23680193019BB3F5CB
:10125000967FF9D303B0F0BD04E100E004800340C1
:101260001C80034014800340248003402C800340F2
:1012700034800340008003400480044000900C4010
:10128000AC10FF1F088003400C8003403F2801D8AA
:10129000FFF7C6BE704700BF3F2801D8FFF7E6BE84
:1012A000704700BF2DE9F843054672B6224F234B25
:1012B000234A1B683C68126862B6520102D5322B81
:1012C00088BF0134B5B3C3F52F3303F21F331D4E6E
:1012D000DFF86890DFF868809B084FF47A72A6FB0D
:1012E000031302FB04F404EB930472B6D9F8001064
:1012F0003A68D8F800E062B6C1F52F3303F21F3325
:101300009B08A6FB03031EF0806FC4EB93034FF40E
:101310007A7002D0322988BF013200FB0233B3F564
:101320007A7F04D3013D05D004F57A74DDE700F03F
:1013300029FFDAE7BDE8F883AC10FF1F18E000E0F2
:1013400004ED00E0176CC116431E032B14D872B6CF
:101350000A4951F8230068B170B4094C058834F883
:101360001320466841F82360521B24F8132062B60C
:1013700070BC704762B67047002070470811FF1FAD
:10138000FC11FF1F013803280BD872B6074B53F826
:10139000203043B100205B680130002BFBD162B6E6
:1013A0007047002070471846F9E700BF5C11FF1F27
:1013B000F0B472B61A491B4E012311F8014B194FB4
:1013C0009A00240742F0010505D556F8324064B171
:1013D00056F83520BAB10133052BEED162B6124B67
:1013E00000221A70F0BC00F037BD0F4C0F4D217871
:1013F00007EB4313083001395860217047F8325029
:1014000062B6F0BC7047084A0949137807EBC50477
:101410000830013B6060137047F8351062B6F0E7A2
:10142000BC3A00000000FF1F8511FF1F880040002C
:10143000C8004000431E032B1DD81B4A400140F04A
:10144000100030B4104472B6184CE25C032A1BD86A
:10145000DFE802F00212151703220D88E25410F0A3
:10146000080F14BFC823882343EA054308314160AD
:10147000036062B630BC704708300222EDE70522F7
:10148000EBE708300422E8E7094A52F8230038B1B4
:10149000084A52F82300416042F8231062B6E9E797
:1014A00042F82310034AF7E70000FF1F9411FF1FC3
:1014B0005C11FF1F6C11FF1F2DE9F04FDFF814B313
:1014C000DFF814A387B044E0AD4F4FEA930807EB71
:1014D000C809013ED9F8042003F00803F6B2A2F1CE
:1014E000080003F0FF04002B40F0038157F8383068
:1014F0001B0C99B222F8081C002B00F0F180A14BC4
:1015000022F8064C42F8044C53F82620002A00F03A
:101510006C819D4D55F8263058609C4C45F826004E
:1015200034F81630194424F8161000F075FC002821
:1015300000F05481964A974B19F0080F00F108000B
:1015400018BF1346C9F8040047F8383008238BF851
:1015500000309BF80040E4B260071BD58E4B1B782F
:10156000ABB18E490A7802F0FF032AB1013BDBB22E
:101570000B70002B00F0B58389490A7802F0FF0355
:101580002AB1013BDBB20B70002B00F0F680042384
:101590008BF8003004F0080303F0FF02002B00F08A
:1015A000D5809AF80030DBB21E098DD19C08744FAB
:1015B00057F8342007EBC401C2F38302013A4968AB
:1015C0000C2A7ED8DFE802F081817D7D7D7D7D7DE6
:1015D000427D7D7D07000868724B734D01936C4B13
:1015E0004A68724E47F8343081B240F281646D4BE4
:1015F0006A60286000220120A1423A611A60BA6143
:10160000307000F2F680B1F5D06F80F0E882B1F56D
:10161000817F00F0D38200F2D881802900F04D81D3
:10162000822940F09282A988614B01F07F01042950
:1016300000F28C825F4C89000B44227062701A7831
:10164000930740F13883207002203AE1554B019313
:101650001A6862B3584B5949544E18880C7896F85A
:1016600000E04028054684F0010C28BF402544F0E6
:101670000204BEF1000F81F800C0A0EB050007EBEB
:10168000C40C0CBF8821C82180B28EF0010E41EA43
:101690000541CCF80420188086F800E02A4447F879
:1016A000341010B9402D18BF0022019B1A603E4B28
:1016B0001A88B2F5A06F04D100219A785970404B76
:1016C0001A70404A0123137040E7374A158842F2E6
:1016D0002100854200F052812D4A47F83420F0E77E
:1016E0002B4A2C4B19F0080F18BF134647F8383017
:1016F0002CE700F0B1FB344A344952F82630002B75
:1017000000F02D8158688C5D42F8260003F1080234
:10171000C9F80420032C05D8DFE804F0120F1502E5
:1017200004228A551A8819F0080F0CBF8823C82391
:1017300043EA024347F8383008E702228A55F1E7C6
:1017400003228A55EEE705228A55EBE7E00700F110
:101750007881210600F1A281A20706D51C4A1D4905
:1017600013780220DBB213700870E30602D5194B20
:1017700010221A7007B0BDE8F08F00F0DFFC06E71A
:101780000000FF1F0811FF1FB410FF1FFC11FF1FF7
:10179000C8004000880040009011FF1F1911FF1F72
:1017A0009811FF1FB010FF1F7C11FF1F1811FF1FA2
:1017B000C02007408811FF1FC410FF1F8411FF1FA6
:1017C00098200740942007405C11FF1F9411FF1FD1
:1017D000882007408020074090200740B74A47F8FC
:1017E0003800137801331370B0E643F82600B44D87
:1017F00093E642F22104A14200F0AD8000F20E8196
:10180000B1F5086F00F05481B1F5106F40F09D8183
:10181000AC4AA9781170AC4D042402E00134142CB8
:101820000CD057F834301906F8D505EBC403013451
:101830005868083800F010FB142CF2D1A349A44BCF
:10184000A44A0291A449A54C9D4D039405964FF0DE
:10185000000988461C4616460495206828B145684C
:1018600000F0FAFA2846002DF9D100232360049BEA
:1018700030681A46002342F8293028B1456800F044
:10188000EBFA2846002DF9D100223260029A98F82E
:1018900000301146002241F8042B039A0291023BCA
:1018A0004FF0000122F81910032B00F2B481DFE899
:1018B00013F0E201AE01E201AE01894C0220227078
:1018C0006270EA88824280F00D8286490D78402A53
:1018D00045F0020E944607EBCE0028BF4FF0400CB7
:1018E00004EB0C0344600293CCEB02004FEA0C487B
:1018F0004FF001090022C82444EA080385F00104DE
:1019000047F83E3032700C70DFF8BCE1764BDFF800
:10191000D481002840F02081BCF1400F1BD144F05D
:10192000020407EBC403029FDFF89CE15F60002A1A
:1019300040F02781020442F0880286F800900D7082
:1019400007444EF834203B46402804D10020674A23
:10195000019910800B60664A01231370B1E68B5D1C
:10196000032B00F2248101A252F823F04D15000050
:101970004D150000911A0000971A0000928862B974
:101980005C4ACD1D11F8013B02F8013F8D42F9D1AF
:10199000594A1268862A00F0C9805249524E087886
:1019A000327840F0020580F00100087007EBC501B5
:1019B000002A4FF00000486082F001020CBF88212D
:1019C000C82147F83510327086E640F20232914263
:1019D00040F0B080A98801F07F01042900F2B580B1
:1019E0006A88002A40F0B180444C89000C4481464A
:1019F000217841F002012170002002908046844647
:101A0000044638490D7845F0020E07EBCE03B9F1D4
:101A1000000F5C600CBF8824C8246DE742F22124CB
:101A2000A14240F08E80A988002940F04281344BC9
:101A3000344A354C1B68AD78136081460A462570E0
:101A4000DAE72B49204B3148264EDFF8B0C0304D45
:101A5000DFF8D4E02F4F02240C702F4C18605C602C
:101A600098602E48D8601A619A610D2332702C4C10
:101A70008CF800302B4EFF232B7001209F258EF811
:101A800000303A7033702570087007B0BDE8F08FF1
:101A900000238B555AE501238B5557E51749224BF7
:101AA00080220D2008701A70A2077FF55EAE55E601
:101AB000044A0B4C1278227003E700BF8511FF1F08
:101AC000B410FF1F9011FF1F0000FF1F6C11FF1FBC
:101AD0000811FF1F5C11FF1F9411FF1FFC11FF1F56
:101AE0008811FF1F8411FF1F1811FF1FC410FF1F53
:101AF000942007400312FF1F0412FF1FC02007405D
:101B0000AC10FF1F0C12FF1FA811FF1F8800400020
:101B10008820074098200740C810FF1F1C11FF1F96
:101B2000842007408C20074080200740754A0F2101
:101B3000117032E7B1F5A06F07D100224FF0010913
:101B40005AE742F221329142F7D06F4B0F221A70BE
:101B50006E4A01231370B4E540287FF6E0AE44F0EE
:101B600002040EEBC401029E4E60AAB183F80090FD
:101B7000674A88F800503346403840334EF83420E6
:101B8000E5E6029B86F80090020442F0C8020D7060
:101B900003444EF83420D7E683F80090029B5D4A58
:101BA00088F80050403840334EF83420CFE619F022
:101BB000080F0CBF022303238B55C7E4A98801F04B
:101BC0007F010429C1D86A88002ABED14E4C890001
:101BD0000C448146217821F0020121700CE74E4A25
:101BE0005468002CB1D06888B5F804E003E00C32EA
:101BF0005468002CA9D013888342F8D153887345C8
:101C0000F5D1000A03280CBF2078108959E64FF05F
:101C1000010388F8003009F10109B9F1040F04F15A
:101C2000040406F1040608F101087FF416AE3B4BEC
:101C3000059E3B4DDFF8F080002018704FF0010941
:101C400018F8013B05F8043B1A0719D44FEA890438
:101C500044F0020244F00304002347F8323047F80E
:101C60003430304B9D4209F10109E9D196F80090DA
:101C700089F00102C0E64FF0000388F80030CAE79F
:101C800000F0CAF818B307EB49134FEA890408308B
:101C90005860204B47F8343000F0BEF868B144F08B
:101CA000010307EBC30208305060194A47F833209C
:101CB000CEE78146A0E6022003E6184B44F001027D
:101CC0001B7847F83200154A01331370C0E7134BF5
:101CD000124A1B784FEA8904013347F83400137025
:101CE000DAE700BE4028844628BF4FF0400C04EBE2
:101CF0000C03CCEB00004FEA0C48029300224FF09B
:101D000001097EE61911FF1FC020074094200740FB
:101D1000C800400088004000C03A00008511FF1F45
:101D2000C4200740D4200740BC3A0000F8B500F0BA
:101D300011FB002324491A4601EBC30041F833206C
:101D40000133142B42604FF000041F48F4D11F49A7
:101D50001F4A0B68DFF890C01E4E1F4F1F4DDFF863
:101D60008CE043F480230B60136843F040731360EE
:101D700003238CF8003001F52831A02333707C3127
:101D800002F5C922C0F307233B701032C0F30743AA
:101D90000B70000EFF2328708EF80030104D0CF8E9
:101DA000BC3C10481370012306F8AC3C81F850404D
:101DB00070264FF40014102107F8183C2E700460B0
:101DC00082F8F810F8BD00BF0000FF1F3480044007
:101DD00000D80040402107409C200740B420074025
:101DE00035E400E004E100E04421074080200740A2
:101DF00000F0A8B800F07AB800F054B800F08EB83F
:101E000000F070B900F04AB90846114600F0B6B8C3
:101E1000084600F037B900BF72B60D480268B2FA42
:101E200082F30B2B10DC4FF00041D94022EA010273
:101E3000026062B6074803EBC303DB00C21800214F
:101E4000C15010465160704762B60020704700BF15
:101E50008407FF1FD003FF1F0D4B0E4AC31AA2FBBE
:101E600003231B090B2B0CD80B4A127852B972B6FC
:101E70000A484FF00041026821FA03F31A43026056
:101E800062B67047064A1278002AF0D0FFF790BA7F
:101E9000D003FF1F398EE3388511FF1F8407FF1F12
:101EA0009011FF1F38B50F4D286878B1438802881C
:101EB000C118013393420C7A02D24380204638BDC8
:101EC000FFF7CAFF002320462B6038BD064B1B7866
:101ED0002BB10320FFF738FA28600028E6D14FF035
:101EE000FF3038BDA411FF1F9011FF1F10B5094C22
:101EF000206818B143881844007A10BD064B1B783F
:101F00002BB10320FFF720FA20600028F2D14FF018
:101F1000FF3010BDA411FF1F9011FF1F074B084A8F
:101F20001B6810B594881BB11A885B88D31A1C44AF
:101F30000CB900F027F9204610BD00BFA411FF1F07
:101F4000FC11FF1F0B4B1B789BB110B50A4C20688E
:101F500048B1FFF781FF002303202360FFF7F4F966
:101F600030B1FFF779FF0320FFF7EEF90028F8D131
:101F700010BD70479011FF1FA411FF1F2DE9F04FF6
:101F8000DFF8F89083B0012289F80020019169B34D
:101F9000DFF8EC80354F019E8346D8F80000B0B3DF
:101FA000334D4488C4F14001B14228BF314604EBAF
:101FB000010E00221FFA8EFE2A70761AA0F802E0A7
:101FC00000F1080251B1013C224459441BF8014B75
:101FD00002F8014F8B45F9D1B0F802E0BEF13F0F96
:101FE0000BD8244A05211170002ED6D10198002368
:101FF00089F8003003B0BDE8F08F4022028001462E
:102000000420FFF717FA0022C8F80020E9E73A7821
:1020100022B3194C164D4FF0010A07E0013C16D0CF
:102020002A78A2B900F0AEF83A78BAB10420FFF7E6
:10203000A9F90728F2D889F800A0FFF7EDFEC8F843
:1020400000000028ADD10D4B013C1870E8D10123F0
:102050004FF0FF302B7003B0BDE8F08F00234FF03E
:10206000FF3089F8003003B0BDE8F08F9011FF1FFA
:10207000A011FF1F9811FF1F214801009911FF1F98
:102080009C11FF1F00B583B002AB012103F8010DC5
:102090001846FFF773FF03B05DF804FB38B50E4D2B
:1020A0000E4C28680123237028B140880023237038
:1020B000C0F1400038BD0A4B1B7813B900202070D6
:1020C00038BD0420FFF75EF90728F7D8FFF7A4FE14
:1020D00028600028E9D1F1E79C11FF1F9911FF1F2B
:1020E0009011FF1FF8B5114B1B788BB1104E114D9D
:1020F000346801272F7064B10F4A63880027177076
:10210000214623800420FFF795F9376000232B70C8
:10211000F8BDFFF781FE084B28B1014604201C7072
:10212000FFF788F9F2E71F70F0E700BF9011FF1F7B
:102130009C11FF1F9911FF1F9811FF1F38B50E4BFF
:102140001B7873B90D4C216861B103F0FF054B8812
:102150000B800420FFF76EF9256038BD084B012283
:102160001A7038BDFFF758FE0028F7D00146BDE8C9
:1021700038400420FFF75EB99911FF1F9C11FF1F23
:102180009811FF1F2DE9F843314E337893B1314F49
:102190003A787AB90122D9073A7036D49A0719D415
:1021A00000225B073A7005D52B4B1A6812B1EFF38A
:1021B00005820AB1BDE8F883EFF3108172B61868A2
:1021C00018B1264C2278002A2ED00029F2D162B60E
:1021D000BDE8F883DFF8908098F80020002ADFD06F
:1021E000DFF88890002405E0013498F80030E4B26C
:1021F000A34212D959F824502B6828461B699847E6
:102200000028F1D02B699847EEE7FFF787FEC8B9A1
:10221000134B1B781BB93378C0E73378C0E73378AA
:1022200003F0FE033370B9E745691D600123237095
:102230005DB1AA6101B962B6002545778368984708
:102240002570B7E700F084F8E2E7064B1D60F1E780
:102250008807FF1FA911FF1FA410FF1FA810FF1F51
:102260008B07FF1FA010FF1FC411FF1FAC11FF1F22
:1022700030B42948294A2A4B2A4D6024E1210470B0
:1022800011701B78284C082B30D00A2B274828497E
:1022900037D00C2B0CBF35225D2212232A6023601D
:1022A00002600B60234B24491B78244ABBB10123F5
:1022B0000B601360224B23491B78234A012B26D93C
:1022C000042B0FD9082B1ED9102B94BF86238723EC
:1022D0000B6013601D4B01221A7030BC70470B60FD
:1022E0001360E7E784230B601360F3E700F58E20AB
:1022F0000F490830212213232A60236002600B60FB
:10230000D0E73922F7E785230B601360E2E78023EB
:102310000B601360DEE700BF00400740014007404C
:102320008907FF1F08B003400CB0034008B00B4002
:102330000CB00B40C611FF1F20B0034020B00B4073
:102340008A07FF1F24B0034024B00B40C511FF1FB4
:10235000704700BF10B584B072B6FEF707FE184A8A
:10236000184B19491160702280211A701A46197091
:1023700013781B06FCD5154B1C68FEF711FE62B6E0
:10238000134B9C429CBF04EB840464002046114C18
:1023900001A90A22FEF71EFE01A92046002311F81A
:1023A000012B01333AB10A2B20F8022FF7D1162363
:1023B000237004B010BD5B00DBB2237004B010BD0D
:1023C0000400024000000240000007410C000240EF
:1023D0007F9698001808FF1F81F0004102E000BFBF
:1023E00083F0004330B54FEA41044FEA430594EAD5
:1023F000050F08BF90EA020F1FBF54EA000C55EA10
:10240000020C7FEA645C7FEA655C00F0E2804FEAE0
:102410005454D4EB5555B8BF6D420CDD2C4480EAC2
:10242000020281EA030382EA000083EA010180EAF2
:10243000020281EA0303362D88BF30BD11F0004F40
:102440004FEA01314FF4801C4CEA113102D0404276
:1024500061EB410113F0004F4FEA03334CEA1333B1
:1024600002D0524263EB430394EA050F00F0A780C9
:10247000A4F10104D5F1200E0DDB02FA0EFC22FAC4
:1024800005F2801841F1000103FA0EF2801843FAB8
:1024900005F359410EE0A5F120050EF1200E012AA9
:1024A00003FA0EFC28BF4CF0020C43FA05F3C018E7
:1024B00051EBE37101F0004507D54FF0000EDCF160
:1024C000000C7EEB00006EEB0101B1F5801F1BD309
:1024D000B1F5001F0CD349085FEA30004FEA3C0C0D
:1024E00004F101044FEA445212F5800F80F09A8003
:1024F000BCF1004F08BF5FEA500C50F1000041EB07
:10250000045141EA050130BD5FEA4C0C404141EB0A
:10251000010111F4801FA4F10104E9D191F0000F31
:1025200004BF01460020B1FA81F308BF2033A3F1B4
:102530000B03B3F120020CDA0C3208DD02F1140CAB
:10254000C2F10C0201FA0CF021FA02F10CE002F1E6
:102550001402D8BFC2F1200C01FA02F120FA0CFCDF
:10256000DCBF41EA0C019040E41AA2BF01EB045128
:10257000294330BD6FEA04041F3C1CDA0C340EDC26
:1025800004F11404C4F1200220FA04F001FA02F369
:1025900040EA030021FA04F345EA030130BDC4F127
:1025A0000C04C4F1200220FA02F001FA04F340EA1C
:1025B0000300294630BD21FA04F0294630BD94F0CD
:1025C000000F83F4801306BF81F480110134013DB4
:1025D0004EE77FEA645C18BF7FEA655C29D094EA25
:1025E000050F08BF90EA020F05D054EA000C04BFA3
:1025F0001946104630BD91EA030F1EBF002100208E
:1026000030BD5FEA545C05D14000494128BF41F02C
:10261000004130BD14F580043CBF01F5801130BD90
:1026200001F0004545F0FE4141F470014FF000001B
:1026300030BD7FEA645C1ABF194610467FEA655CCC
:102640001CBF0B46024650EA013406BF52EA03356E
:1026500091EA030F41F4002130BD00BF90F0000F5C
:1026600004BF0021704730B54FF4806404F1320498
:102670004FF000054FF0000150E700BF90F0000F51
:1026800004BF0021704730B54FF4806404F1320478
:1026900010F0004548BF40424FF000013EE700BF48
:1026A00042004FEAE2014FEA31014FEA02701FBFD8
:1026B00012F07F4393F07F4F81F06051704792F0AA
:1026C000000F14BF93F07F4F704730B54FF4607424
:1026D00001F0004521F0004120E700BF50EA01026F
:1026E00008BF704730B54FF000050AE050EA01021C
:1026F00008BF704730B511F0004502D5404261EB8C
:1027000041014FF4806404F132045FEA915C3FF4CC
:10271000DCAE4FF003025FEADC0C18BF03325FEA65
:10272000DC0C18BF033202EBDC02C2F1200300FA1A
:1027300003FC20FA02F001FA03FE40EA0E0021FA3F
:1027400002F11444C1E600BF70B54FF0FF0C4CF429
:10275000E06C1CEA11541DBF1CEA135594EA0C0FDF
:1027600095EA0C0F00F0DEF82C4481EA030621EA1A
:102770004C5123EA4C5350EA013518BF52EA033555
:1027800041F4801143F4801338D0A0FB02CE4FF007
:102790000005E1FB02E506F00042E0FB03E54FF037
:1027A0000006E1FB03569CF0000F18BF4EF0010E2F
:1027B000A4F1FF04B6F5007F64F5407404D25FEA2B
:1027C0004E0E6D4146EB060642EAC62141EA5551DE
:1027D0004FEAC52040EA5E504FEACE2EB4F1FD0C20
:1027E00088BFBCF5E06F1ED8BEF1004F08BF5FEA9E
:1027F000500E50F1000041EB045170BD06F0004650
:1028000046EA010140EA020081EA0301B4EB5C04FC
:10281000C2BFD4EB0C0541EA045170BD41F48011F4
:102820004FF0000E013C00F3AB8014F1360FDEBF19
:10283000002001F0004170BDC4F10004203C35DAF5
:102840000C341BDC04F11404C4F1200500FA05F378
:1028500020FA04F001FA05F240EA020001F0004219
:1028600021F0004110EBD37021FA04F642EB06018F
:102870005EEA430E08BF20EAD37070BDC4F10C04B9
:10288000C4F1200500FA04F320FA05F001FA04F27D
:1028900040EA020001F0004110EBD37041F1000169
:1028A0005EEA430E08BF20EAD37070BDC4F1200574
:1028B00000FA05F24EEA020E20FA04F301FA05F2DC
:1028C00043EA020321FA04F001F0004121FA04F284
:1028D00020EA020000EBD3705EEA430E08BF20EA54
:1028E000D37070BD94F0000F0FD101F0004640008E
:1028F00041EB010111F4801F08BF013CF7D041EA10
:10290000060195F0000F18BF704703F00046520013
:1029100043EB030313F4801F08BF013DF7D043EAE4
:102920000603704794EA0C0F0CEA135518BF95EA9A
:102930000C0F0CD050EA410618BF52EA4306D1D121
:1029400081EA030101F000414FF0000070BD50EA40
:10295000410606BF1046194652EA430619D094EACA
:102960000C0F02D150EA013613D195EA0C0F05D1B4
:1029700052EA03361CBF104619460AD181EA030108
:1029800001F0004141F0FE4141F470014FF00000C0
:1029900070BD41F0FE4141F4780170BD70B54FF05B
:1029A000FF0C4CF4E06C1CEA11541DBF1CEA1355DB
:1029B00094EA0C0F95EA0C0F00F0A7F8A4EB0504BD
:1029C00081EA030E52EA03354FEA013100F08880B4
:1029D0004FEA03334FF0805545EA131343EA12637D
:1029E0004FEA022245EA111545EA10654FEA002632
:1029F0000EF000419D4208BF964244F1FD0404F5EB
:102A0000407402D25B084FEA3202B61A65EB030546
:102A10005B084FEA32024FF480104FF4002CB6EB03
:102A2000020E75EB030E22BFB61A754640EA0C0083
:102A30005B084FEA3202B6EB020E75EB030E22BFC3
:102A4000B61A754640EA5C005B084FEA3202B6EB04
:102A5000020E75EB030E22BFB61A754640EA9C00C3
:102A60005B084FEA3202B6EB020E75EB030E22BF93
:102A7000B61A754640EADC0055EA060E18D04FEA51
:102A8000051545EA16754FEA06164FEAC30343EAF1
:102A900052734FEAC2025FEA1C1CC0D111F4801FBE
:102AA0000BD141EA00014FF000004FF0004CB6E7B7
:102AB00011F4801F04BF01430020B4F1FD0C88BF56
:102AC000BCF5E06F3FF6AFAEB5EB030C04BFB6EB61
:102AD000020C5FEA500C50F1000041EB045170BD54
:102AE0000EF0004E4EEA113114EB5C04C2BFD4EB81
:102AF0000C0541EA045170BD41F480114FF0000E05
:102B0000013C90E645EA060E8DE60CEA135594EA80
:102B10000C0F08BF95EA0C0F3FF43BAF94EA0C0F83
:102B20000AD150EA01347FF434AF95EA0C0F7FF4F8
:102B300025AF104619462CE795EA0C0F06D152EA4C
:102B400003353FF4FDAE1046194622E750EA410630
:102B500018BF52EA43067FF4C5AE50EA41047FF441
:102B60000DAF52EA43057FF4EBAE12E74FF0FF3CA6
:102B700006E000BF4FF0010C02E000BF4FF0010C77
:102B80004DF804CD4FEA410C7FEA6C5C4FEA430CF0
:102B900018BF7FEA6C5C1BD001B050EA410C0CBF3F
:102BA00052EA430C91EA030F02BF90EA020F0020A1
:102BB000704710F1000F91EA030F58BF994208BF08
:102BC00090422CBFD8176FEAE37040F001007047C5
:102BD0004FEA410C7FEA6C5C02D150EA013C07D11C
:102BE0004FEA430C7FEA6C5CD6D152EA033CD3D067
:102BF0005DF8040B704700BF8446104662468C4661
:102C00001946634600E000BF01B5FFF7B7FF002893
:102C100048BF10F1000F01BD4DF808EDFFF7F4FFBC
:102C20000CBF012000205DF808FB00BF4DF808ED47
:102C3000FFF7EAFF34BF012000205DF808FB00BF6A
:102C40004DF808EDFFF7E0FF94BF012000205DF88C
:102C500008FB00BF4DF808EDFFF7CEFF94BF012041
:102C600000205DF808FB00BF4DF808EDFFF7C4FF3A
:102C700034BF012000205DF808FB00BF4FEA410C83
:102C80007FEA6C5C02D150EA013C0AD14FEA430C66
:102C90007FEA6C5C02D152EA033C02D14FF00000A3
:102CA00070474FF0010070474A0011D212F5001230
:102CB00011D20DD56FF47873B3EB62520ED44FEA94
:102CC000C12343F0004343EA505323FA02F0704714
:102CD0004FF00000704750EA013002D14FF0FF3052
:102CE00070474FF0000070474FEA4102B2F1E043F5
:102CF00024BFB3F5001CDCF1FE5C0DD901F0004CE3
:102D00004FEAC0024CEA5070B2F1004F40EB830032
:102D100008BF20F00100704711F0804F21D113F15E
:102D20003872BCBF01F00040704741F480114FEA97
:102D30005252C2F11802C2F1200C10FA0CF320FA20
:102D400002F018BF40F001004FEAC1234FEAD3233D
:102D500003FA0CFC40EA0C0023FA02F34FEA4303A7
:102D6000CCE77FEA625307D150EA01331EBF4FF030
:102D7000FE4040F44000704701F0004040F0FE404B
:102D800040F40000704700BF014B1868704700BF57
:102D9000580CFF1F70B50F4E0F4D761BB61018BFA5
:102DA000002405D0013455F8043B9847A642F9D1D8
:102DB0000A4E0B4D761B00F0AFFEB61018BF002474
:102DC00006D0013455F8043B9847A642F9D170BDAE
:102DD00070BD00BF243B0000243B0000303B0000DE
:102DE000243B0000024B0146186800F003B800BF06
:102DF000580CFF1F2DE9F04F01F10B05162D83B084
:102E0000064640F29F8035F0070500F1BF80A942D9
:102E100000F2BC8000F0A6FAB5F5FC7FC0F09C8201
:102E20006B0A00F0BA80042B00F28381A80900F13C
:102E3000390E4FEA4E033830C44F07EB8303A3F13A
:102E400008015C68A14207D1ACE0002A80F2AC80A6
:102E5000E468A14200F0A680636823F003035A1BD4
:102E60000F2AF2DDB9493C6901F1080E744500F002
:102E7000B381636823F003035A1B0F2A00F399817F
:102E8000002AC1F814E0C1F810E080F29E80B3F58A
:102E9000007F80F06781DB0803F1010C01229B10A9
:102EA00002FA03F34A6851F83C80C4F8088001EB49
:102EB000CC091A43A9F10803E3604A6041F83C4099
:102EC000C8F80C40831001249C40944200F28A8090
:102ED000144206D120F003006400144200F1040003
:102EE000FAD007EBC009CC468046DCF80C108C45C4
:102EF00007D173E1002A80F28181C9688C4500F016
:102F00006D814B6823F003035A1B0F2AF2DD0C4638
:102F1000D1F80CC054F8088F4B1945F001054D60ED
:102F200042F00101C8F80CC03046CCF808807B6143
:102F30003B61C3F80CE0C3F808E059609A5000F018
:102F400013FA1FE0102921D800F00CFA10250623EF
:102F500002207E4F07EB8303A3F108025C689442D2
:102F600000F045816368E168A56823F0030323440A
:102F700030465A68E96042F001028D605A6000F004
:102F8000F3F90834204603B0BDE8F08F00240C2389
:102F90002046336003B0BDE8F08F80234FF0400E31
:102FA0003F2049E770465DE72344E1685A68A56819
:102FB00042F00102E96030468D605A6000F0D4F9B9
:102FC0000834204603B0BDE8F08F234430465A68E9
:102FD00042F001025A6000F0C7F90834204603B0FD
:102FE000BDE8F08FBC68636823F00308A84504D3EC
:102FF000C5EB08030F2B00F38C80554BDFF8609175
:103000001A68D9F8003001332A4404EB080A00F0AA
:10301000608102F580520F3222F47F6222F00F02AB
:1030200011463046019200F0A1F9B0F1FF3F83460E
:10303000019A00F05881824500F2FC80454B1968E6
:10304000DA451144196000F05381D9F80000DFF827
:1030500010E101301BBFCAEB0B0A5144CEF800B09F
:1030600019601BF0070100F01781C1F10800C1F5DC
:103070008051834408315A44C2F30B02C2EB010968
:1030800049463046019300F071F9431C019B00F062
:103090003F81CBEB00024A4442F001021968C7F8B5
:1030A00008B04944BC42CBF804201960DFF8A49072
:1030B00016D0B8F10F0F40F2FD806268A8F10C0342
:1030C00023F00703E01802F001024FF0050E1A4347
:1030D0000F2B6260C0F804E0C0F808E000F21C8129
:1030E0001D4BBC681A68914288BF19601B4B1A6857
:1030F0009142626888BF196022F003029542A2EBF8
:10310000050301D80F2B04DC304600F02DF9002414
:1031100038E7621943F0010345F001056560304668
:10312000BA60536000F020F90834204603B0BDE8CF
:10313000F08F142B71D9542B00F2A480280B00F1CE
:103140006F0E4FEA4E036E3076E600BF5C0CFF1F39
:10315000D011FF1FD411FF1FCC11FF1FC811FF1F7B
:103160006810FF1F5A0A042A5ED9142A00F2B3809D
:1031700002F15C0149005B3207EB810C57F821102A
:10318000DFF8DC81ACF1080C8C4500F088804A68DF
:1031900022F00302934202D289688C45F7D1D1F81C
:1031A0000CC07A68C4F80CC0A160CCF80840CC60B0
:1031B00088E6631942F0010745F001056560304675
:1031C0004B610B61C3F80CE0C3F808E05F609A50F4
:1031D000083400F0C9F8D5E64A6873E608F101083A
:1031E00018F0030F0CF1080C7FF47FAE30E0DC68C0
:1031F000A34208BF02303FF435AEB3E60B440C46A1
:103200005A68C96854F8085F42F001025A603046B3
:10321000E9608D6000F0A8F8B4E603F15C0E03F1FC
:103220005B004FEA4E0307E69A0902F139014900B3
:103230003832A1E7BC424A4B3FF400AF9C68626859
:1032400022F003025AE759F80839994540F0828084
:1032500010F0030F00F1FF30F5D17B6823EA04037F
:103260007B6064009C423FF6BDAE002C3FF4BAAEDA
:103270001C4240467FF435AE64001C4200F104005D
:10328000FAD02EE6B3F5AA7F18D8E80B00F1780E35
:103290004FEA4E037730CFE54FF48051EBE6012142
:1032A000D8F80430921001FA02F21A43C8F8042048
:1032B000614677E70123CBF8043025E740F254520A
:1032C000934220D8A80C00F17D0E4FEA4E037C30CB
:1032D000B2E51032A4E6542A26D81A0B02F16F0187
:1032E00049006E3248E7BC68626822F0030205E7D5
:1032F000CAF30B0000287FF4A8AE4244BB6842F03A
:1033000001025A60ECE6FE234FF07F0E7E2093E52B
:1033100001224FF00009C1E604F10801304600F037
:10332000A9F8D9F80010DBE6B2F5AA7F05D8DA0BC8
:1033300002F17801490077321EE740F254518A4287
:1033400005D89A0C02F17D0149007C3214E7FE2178
:103350007E2211E77B6884E7E808431C5B00F8E500
:103360005C0CFF1F704700BF704700BF38B5074CAB
:103370000023054608462360FDF7E2FD431C00D00C
:1033800038BD2368002BFBD02B6038BD1012FF1F07
:10339000024B13B1024800F005B87047000000006E
:1033A000B1330000002301461A46184600F04AB91E
:1033B00038B5074D074C2C1BA41005D0013C55F81F
:1033C000043D9847002CF9D1BDE8384000F0B0BB6F
:1033D0000000000000000000F8B5234F0C46064630
:1033E000FFF7C0FFBB685D6825F00305291B01F6E8
:1033F000EF7121F47F6121F00F01A1F58054B4F544
:10340000805F07DB00213046FFF7B0FFBB682B442D
:10341000984204D03046FFF7A7FF0020F8BD614274
:103420003046FFF7A3FF01300DD0104BBA68196882
:103430002D1B45F001053046091B55601960FFF74B
:1034400093FF0120F8BD00213046FFF78FFFBA68D7
:10345000831A0F2BDEDD064C0449246843F0010378
:10346000001B53600860D5E75C0CFF1FD411FF1FE1
:103470006810FF1F002945D02DE9F0410D46804618
:10348000FFF770FF55F8047C6A4927F00103A5F1A6
:103490000804E2188E685068B24220F0030062D03F
:1034A000FE0750600BD455F8087CE41B01F1080EB0
:1034B000A56875453B446FD0E768EF60BD6015189F
:1034C0006D68ED0742D543F001026260E350B3F549
:1034D000007F18D2DB085A1C4D6851F83270A76083
:1034E00001209B1000FA03F301EBC2001D430838D2
:1034F000E0604D6041F83240FC604046BDE8F0417C
:10350000FFF732BF70475A0A042A53D89A0902F1CA
:1035100039077F0002F1380501EB870051F82720B9
:103520004449083890424DD0516821F003018B4244
:1035300002D292689042F7D1D068E060A2608460C5
:10354000D4604046BDE8F041FFF70EBF95683A4FA2
:10355000BD4203443FD0D068E86043F0010285607B
:103560006260E350B3E7FF07034407D455F8082C23
:10357000A41A1344A068E268C26090602F4A1268DF
:1035800043F00100934260608C60B6D32C4B404600
:103590001968FFF721FFB0E711184968C90744D43B
:1035A0009168D268CA60034443F001009160606092
:1035B000E350A2E7142A17D802F15C077F0002F15A
:1035C0005B05A9E7AA104B68012505FA02F213432F
:1035D0004B600246B1E743F001024C610C61E560CB
:1035E000A5606260E35088E7542A06D81A0B02F1FE
:1035F0006F077F0002F16E058EE7B2F5AA7F06D84D
:10360000DA0B02F178077F0002F1770584E740F2D8
:103610005450824206D89A0C02F17D077F0002F1D5
:103620007C0579E7FE277E2576E743F0010262609C
:10363000E35062E75C0CFF1F640CFF1F6410FF1F68
:10364000D011FF1F2DE9F047254C2568D5F84841DA
:103650000646884692469946C4B360681F2817DC20
:10366000431C76B104EB80050122C5F888A0D4F88C
:10367000881182401143022EC4F88811C5F80891C0
:103680001ED00230636044F820800020BDE8F0873F
:10369000144B03B34FF4C870FFF7A4FB0446D0B13A
:1036A000D5F84831002780E88800C5F848413846F9
:1036B0000123C4F88871C4F88C71002EE1D0D1E7E1
:1036C000D4F88C110A43C4F88C21DAE705F5A67406
:1036D000C5F84841C1E74FF0FF30BDE8F08700BFB3
:1036E000143B0000E52D0000446576696365206E9B
:1036F0006F74206465746563746564005265616409
:103700002028307800000000292077697468206341
:103710006F6D6D616E643A203062000052656164C5
:103720002072657475726E65643A20005365747416
:10373000696E67206572726F7220626974000000A2
:103740004572726F722062697420776173207365AD
:1037500074210000434F4D502068696768000000E5
:10376000434F4D50206C6F7700000000434F524490
:103770004943206F766572666C6F77004F6666739B
:10378000657420636F6D70656E736174696F6E2010
:1037900066696E6973686564000000005061726953
:1037A0007479204572726F7200000000436F6D6D76
:1037B000616E6420696E76616C6964004672616D49
:1037C000696E67206572726F7200000057726974CB
:1037D000652028307800000053656E64696E6720AC
:1037E0006461746120746F2077726974653A200097
:1037F0003C80044000100000041A0000FF7F00001D
:103800000F0E00003D0800000C0827FF000200001A
:103810000002000000020000000000000B071CFF77
:103820000002000000020000000200000000000092
:103830000D0E1B000002000000020000000200004C
:103840000A020906141715160F1A2D0000020000AF
:103850000002000000020000000200000002000060
:103860000002000000020000000200000002000050
:103870000002000000030000010102020404080825
:10388000100120000D0AFFFF6E616E006F7666006A
:10389000696E66004008FE4340A004404408FE43B1
:1038A00044A004400018FE4300C004403000FE4322
:1038B000309004403400FE43349004401C18FE4312
:1038C0001CC004401018FE4310C004400818FE43FA
:1038D00008C004400C18FE430CC004400C10FE430A
:1038E0000CB004401010FE4310B004401810FE430A
:1038F00018B004401C10FE431CB004401410FE43DA
:1039000014B004400418FE4304C004400010FE43F9
:1039100000B004400008FE4300A004400408FE4339
:1039200004A004400C08FE430CA004400808FE4319
:1039300008A004401418FE4314C004401818FE43A5
:1039400018C004400410FE4304B004400810FE43B5
:1039500008B004406820FE4368D004401400FE43D1
:10396000149004403800FE43389004403C00FE436D
:103970003C9004404000FE43409004404808FE4311
:1039800048A004404C08FE434CA004402808FE43D5
:1039900028A004402C08FE432CA004406020FE43D5
:1039A00060D004406420FE4364D004402010FE43F5
:1039B00020B004402410FE4324B004402810FE43ED
:1039C00028B004402C10FE432CB004404400FE43B9
:1039D000449004407000FE43709004407400FE4325
:1039E000749004406800FE43689004405008FE4311
:1039F00050A004405808FE4358A004405C08FE4311
:103A00005CA004405408FE4354A004402018FE4328
:103A100020C004402418FE4324C004401008FE4384
:103A200010A004401408FE4314A004403818FE43BC
:103A300038C004403418FE4334C004403018FE43FC
:103A400030C004403C18FE433CC004402C18FE43E8
:103A50002CC004402820FE4328D004402C20FE43E4
:103A60002CD004400020FE4300D004400420FE433C
:103A700004D004400820FE4308D004400C20FE433C
:103A80000CD004401020FE4310D004401420FE430C
:103A900014D004400000000000000000111E0000CF
:103AA000091E0000051E0000011E0000FD1D000093
:103AB000F91D0000F51D0000F11D0000001519158D
:103AC000000100008C07FF1F120000000002000030
:103AD000B807FF1F43000000000300001408FF1F89
:103AE0000000000001030904A007FF1F0000000000
:103AF00002030904FC07FF1F000000000303090480
:103B00001808FF1F00000000000000000000000077
:103B1000000000003008FF1FF8B500BFF8BC08BC6B
:103B20009E467047913300003504000011080000E4
:043B3000F8B500BF25
:103B340000C00240F0370000000000000000000058
:103B44000000000000000000000000000000000071
:103B54000000000000000000000000000000000061
:103B64000000000000000000000000000000000051
:103B74001412FF1F9C3A000000000000E80300003C
:103B840000000000FFFFFFFF010A04011201100101
:103B940002000040C0168304770201020301000002
:103BA40018035400650065006E007300790064001A
:103BB400750069006E006F0009024300020100C035
:103BC400320904000001020201000524001001056D
:103BD40024010101042402060524060001070582CC
:103BE4000310004009040100020A00000007050355
:103BF400024000000705840240000000160355003F
:103C04005300420020005300650072006900610007
:103C14006C000000040309040C0300000000000011
:103C24000000000000000000000000000000000090
:103C3400000000001C0BFF1F840BFF1FEC0BFF1F79
:103C44000000000000000000000000000000000070
:103C54000000000000000000000000000000000060
:103C64000000000000000000000000000000000050
:103C74000000000000000000000000000000000040
:103C84000000000000000000000000000000000030
:103C94000000000000000000000000000000000020
:103CA4000000000000000000000000000000000010
:103CB4000000000000000000000000000000000000
:103CC40000000000000000000000000000000000F0
:103CD40000000000000000000100000000000000DF
:103CE4000E33CDAB34126DE6ECDE05000B000000A4
:103CF40000000000000000000000000000000000C0
:103D040000000000000000000000000000000000AF
:103D1400000000000000000000000000000000009F
:103D2400000000000000000000000000000000008F
:1040540000000000000000003008FF1F0000000006
:10406400000000005C0CFF1F5C0CFF1F640CFF1FB2
:10407400640CFF1F6C0CFF1F6C0CFF1F740CFF1FE4
:10408400740CFF1F7C0CFF1F7C0CFF1F840CFF1F94
:10409400840CFF1F8C0CFF1F8C0CFF1F940CFF1F44
:1040A400940CFF1F9C0CFF1F9C0CFF1FA40CFF1FF4
:1040B400A40CFF1FAC0CFF1FAC0CFF1FB40CFF1FA4
:1040C400B40CFF1FBC0CFF1FBC0CFF1FC40CFF1F54
:1040D400C40CFF1FCC0CFF1FCC0CFF1FD40CFF1F04
:1040E400D40CFF1FDC0CFF1FDC0CFF1FE40CFF1FB4
:1040F400E40CFF1FEC0CFF1FEC0CFF1FF40CFF1F64
:10410400F40CFF1FFC0CFF1FFC0CFF1F040DFF1F12
:10411400040DFF1F0C0DFF1F0C0DFF1F140DFF1FBF
:10412400140DFF1F1C0DFF1F1C0DFF1F240DFF1F6F
:10413400240DFF1F2C0DFF1F2C0DFF1F340DFF1F1F
:10414400340DFF1F3C0DFF1F3C0DFF1F440DFF1FCF
:10415400440DFF1F4C0DFF1F4C0DFF1F540DFF1F7F
:10416400540DFF1F5C0DFF1F5C0DFF1F640DFF1F2F
:10417400640DFF1F6C0DFF1F6C0DFF1F740DFF1FDF
:10418400740DFF1F7C0DFF1F7C0DFF1F840DFF1F8F
:10419400840DFF1F8C0DFF1F8C0DFF1F940DFF1F3F
:1041A400940DFF1F9C0DFF1F9C0DFF1FA40DFF1FEF
:1041B400A40DFF1FAC0DFF1FAC0DFF1FB40DFF1F9F
:1041C400B40DFF1FBC0DFF1FBC0DFF1FC40DFF1F4F
:1041D400C40DFF1FCC0DFF1FCC0DFF1FD40DFF1FFF
:1041E400D40DFF1FDC0DFF1FDC0DFF1FE40DFF1FAF
:1041F400E40DFF1FEC0DFF1FEC0DFF1FF40DFF1F5F
:10420400F40DFF1FFC0DFF1FFC0DFF1F040EFF1F0D
:10421400040EFF1F0C0EFF1F0C0EFF1F140EFF1FBA
:10422400140EFF1F1C0EFF1F1C0EFF1F240EFF1F6A
:10423400240EFF1F2C0EFF1F2C0EFF1F340EFF1F1A
:10424400340EFF1F3C0EFF1F3C0EFF1F440EFF1FCA
:10425400440EFF1F4C0EFF1F4C0EFF1F540EFF1F7A
:10426400540EFF1F5C0EFF1F5C0EFF1F640EFF1F2A
:10427400640EFF1F6C0EFF1F6C0EFF1F740EFF1FDA
:10428400740EFF1F7C0EFF1F7C0EFF1F840EFF1F8A
:10429400840EFF1F8C0EFF1F8C0EFF1F940EFF1F3A
:1042A400940EFF1F9C0EFF1F9C0EFF1FA40EFF1FEA
:1042B400A40EFF1FAC0EFF1FAC0EFF1FB40EFF1F9A
:1042C400B40EFF1FBC0EFF1FBC0EFF1FC40EFF1F4A
:1042D400C40EFF1FCC0EFF1FCC0EFF1FD40EFF1FFA
:1042E400D40EFF1FDC0EFF1FDC0EFF1FE40EFF1FAA
:1042F400E40EFF1FEC0EFF1FEC0EFF1FF40EFF1F5A
:10430400F40EFF1FFC0EFF1FFC0EFF1F040FFF1F08
:10431400040FFF1F0C0FFF1F0C0FFF1F140FFF1FB5
:10432400140FFF1F1C0FFF1F1C0FFF1F240FFF1F65
:10433400240FFF1F2C0FFF1F2C0FFF1F340FFF1F15
:10434400340FFF1F3C0FFF1F3C0FFF1F440FFF1FC5
:10435400440FFF1F4C0FFF1F4C0FFF1F540FFF1F75
:10436400540FFF1F5C0FFF1F5C0FFF1F640FFF1F25
:10437400640FFF1F6C0FFF1F6C0FFF1F740FFF1FD5
:10438400740FFF1F7C0FFF1F7C0FFF1F840FFF1F85
:10439400840FFF1F8C0FFF1F8C0FFF1F940FFF1F35
:1043A400940FFF1F9C0FFF1F9C0FFF1FA40FFF1FE5
:1043B400A40FFF1FAC0FFF1FAC0FFF1FB40FFF1F95
:1043C400B40FFF1FBC0FFF1FBC0FFF1FC40FFF1F45
:1043D400C40FFF1FCC0FFF1FCC0FFF1FD40FFF1FF5
:1043E400D40FFF1FDC0FFF1FDC0FFF1FE40FFF1FA5
:1043F400E40FFF1FEC0FFF1FEC0FFF1FF40FFF1F55
:10440400F40FFF1FFC0FFF1FFC0FFF1F0410FF1F03
:104414000410FF1F0C10FF1F0C10FF1F1410FF1FB0
:104424001410FF1F1C10FF1F1C10FF1F2410FF1F60
:104434002410FF1F2C10FF1F2C10FF1F3410FF1F10
:104444003410FF1F3C10FF1F3C10FF1F4410FF1FC0
:104454004410FF1F4C10FF1F4C10FF1F5410FF1F70
:0C4464005410FF1F00000200FFFFFFFFCC
:00000001FF
