:100000000C945D000C9485000C9485000C94850084
:100010000C9485000C9485000C9485000C9485004C
:100020000C9485000C9485000C9485000C9485003C
:100030000C9485000C9485000C9485000C9485002C
:100040000C94C5020C9485000C9435030C940F039A
:100050000C9485000C9485000C9485000C9485000C
:100060000C9485000C94850000000008000201003B
:100070000003040700000000000000000000000072
:10008000250028002B0000000000240027002A0083
:10009000040404040404040402020202020203032E
:1000A0000303030301020408102040800102040836
:1000B0001020010204081020670311241FBECFEF97
:1000C000D8E0DEBFCDBF22E0AEE6B1E001C01D92B8
:1000D000AE31B207E1F711E0A0E0B1E0E4E0FAE010
:1000E00002C005900D92AE36B107D9F710E0CDE50C
:1000F000D0E004C02197FE010E94FA04CC35D1075C
:10010000C9F70E94A1030C9400050C94000090E034
:10011000FC01EC55FF4F249180579F4FFC018491C7
:10012000882399F090E0880F991FFC01EA57FF4F50
:10013000A591B491FC01E458FF4F859194918FB73C
:10014000F894EC91E22BEC938FBF0895FC01538D52
:10015000448D252F30E0842F90E0821B930B5417A1
:1001600010F0CF96089501970895FC01918D828D2E
:10017000981761F0A28DAE0FBF2FB11D5D968C91C7
:10018000928D9F5F9F73928F90E008958FEF9FEF06
:100190000895FC01918D828D981731F0828DE80FC2
:1001A000F11D858D90E008958FEF9FEF0895FC017C
:1001B000918D228D892F90E0805C9F4F821B910949
:1001C0008F7399270895FC01A48DA80FB92FB11D35
:1001D000A35ABF4F2C91848D90E001968F7399277D
:1001E000848FA689B7892C93A089B1898C9183705B
:1001F00080648C93938D848D981306C00288F38954
:10020000E02D80818F7D80830895EF92FF920F9380
:100210001F93CF93DF93EC0181E0888F9B8D8C8DB2
:1002200098131AC0E889F989808185FF15C09FB7A6
:10023000F894EE89FF896083E889F9898081837069
:10024000806480839FBF81E090E0DF91CF911F9118
:100250000F91FF90EF900895F62E0B8D10E00F5F39
:100260001F4F0F731127E02E8C8D8E110CC00FB60F
:1002700007FCFACFE889F989808185FFF5CFCE01A7
:100280000E94E300F1CFEB8DEC0FFD2FF11DE35A3F
:10029000FF4FF0829FB7F8940B8FEA89FB8980812A
:1002A0008062CFCFCF93DF93EC01888D8823B9F0A4
:1002B000AA89BB89E889F9898C9185FD03C0808171
:1002C00086FD0DC00FB607FCF7CF8C9185FFF2CFEE
:1002D000808185FFEDCFCE010E94E300E9CFDF9161
:1002E000CF91089588E791E00E94D70021E0892B03
:1002F00009F420E0822F089580E090E0892B29F016
:100300000E94720181110C940000089590E0FC019C
:10031000E859FF4F2491FC01EC55FF4F3491FC014B
:10032000E057FF4FE491EE23C9F0222339F0233048
:1003300001F1A8F4213019F1223029F1F0E0EE0F9B
:10034000FF1FE458FF4FA591B4918FB7F894EC913B
:10035000611126C030953E233C938FBF089527300E
:10036000A9F02830C9F0243049F7809180008F7DB2
:1003700003C0809180008F7780938000DFCF84B5A9
:100380008F7784BDDBCF84B58F7DFBCF8091B000AC
:100390008F778093B000D2CF8091B0008F7DF9CF5E
:1003A0003E2BDACF3FB7F89480917401909175019C
:1003B000A0917601B091770126B5A89B05C02F3F8B
:1003C00019F00196A11DB11D3FBFBA2FA92F982F7B
:1003D0008827BC01CD01620F711D811D911D42E076
:1003E000660F771F881F991F4A95D1F708958F923E
:1003F0009F92AF92BF92CF92DF92EF92FF926B01EA
:100400007C010E94D2014B015C01C114D104E104C2
:10041000F104B9F00E94D201681979098A099B098F
:10042000683E73408105910580F321E0C21AD1082E
:10043000E108F10888EE880E83E0981EA11CB11C2B
:10044000E4CFFF90EF90DF90CF90BF90AF909F9060
:100450008F900895AF92BF92CF92DF92EF92FF926A
:100460000F931F93CF93DF936C017B018B01040FDC
:10047000151FEB015E01AE18BF08C017D10759F078
:100480006991D601ED91FC910190F081E02DC601BA
:100490000995892B79F7C501DF91CF911F910F91B4
:1004A000FF90EF90DF90CF90BF90AF9008950CB485
:1004B00005FC0DC09EBD00000DB407FEFDCF9EB52E
:1004C0008EBD00000DB407FEFDCF8EB508958EBD24
:1004D00000000DB407FEFDCF8EB59EBD00000DB42B
:1004E00007FEFDCF9EB50895FC0101900020E9F7BD
:1004F0003197AF01481B590BBC0188E791E00C9480
:100500002A028F929F92AF92BF920F931F93CF9325
:10051000DF93CDB7DEB7A1970FB6F894DEBF0FBE5D
:10052000CDBF19A2423008F44AE08E010F5D1F4F83
:10053000842E912CB12CA12CA50194010E94D804E9
:10054000E62FB901CA01EA30F4F4E05DD801EE9378
:100550008D01232B242B252B79F790E080E0109739
:1005600019F0CD010E947402A1960FB6F894DEBF77
:100570000FBECDBFDF91CF911F910F91BF90AF9074
:100580009F908F900895E95CE1CF1F920F920FB674
:100590000F9211242F933F938F939F93AF93BF9309
:1005A0008091700190917101A0917201B0917301DD
:1005B00030916F0123E0230F2D3758F50196A11DCF
:1005C000B11D20936F018093700190937101A093EE
:1005D0007201B09373018091740190917501A091A3
:1005E0007601B09177010196A11DB11D8093740130
:1005F00090937501A0937601B0937701BF91AF916D
:100600009F918F913F912F910F900FBE0F901F9050
:10061000189526E8230F0296A11DB11DD2CF1F9277
:100620000F920FB60F9211242F933F934F935F9326
:100630006F937F938F939F93AF93BF93EF93FF93AA
:1006400088E791E00E94E300FF91EF91BF91AF91A5
:100650009F918F917F916F915F914F913F912F91DA
:100660000F900FBE0F901F9018951F920F920FB60C
:100670000F9211242F938F939F93EF93FF93E09109
:100680008801F09189018081E0918E01F0918F01C4
:1006900082FD1BC09081809191018F5F8F732091AB
:1006A0009201821741F0E0919101F0E0E858FE4F8D
:1006B000958F80939101FF91EF919F918F912F9151
:1006C0000F900FBE0F901F9018958081F4CFE8E730
:1006D000F1E01382128288EE93E0A0E0B0E0848320
:1006E0009583A683B78385E091E09183808385EC31
:1006F00090E09587848784EC90E09787868780ECEC
:1007000090E0918B808B81EC90E0938B828B82ECDC
:1007100090E0958B848B86EC90E0978B868B118E86
:10072000128E138E148EE5E1F2E089E0808311824F
:1007300012821482138281E0858380E5878310868C
:100740000895789484B5826084BD84B5816084BD49
:1007500085B5826085BD85B5816085BD80916E005F
:10076000816080936E001092810080918100826090
:1007700080938100809181008160809381008091CD
:1007800080008160809380008091B10084608093BC
:10079000B1008091B00081608093B00080917A00B8
:1007A000846080937A0080917A00826080937A00DE
:1007B00080917A00816080937A0080917A008068CD
:1007C00080937A001092C10060ED77E080E090E0C5
:1007D0000E94F70110921B0280911A02882341F0B7
:1007E00083E191E00E9474028CE291E00E94740225
:1007F00085E580931C0281E080931D0280911502A3
:100800000E9487001FB7F89480916E01811124C067
:10081000EAE9F0E08491EEEAF0E09491E82FF0E06C
:10082000EE0FFF1FEA57FF4FA591B491EC91E9231A
:1008300021F461E08AE00E9486018AE00E9487003C
:100840008CB580618CBD8CB580648CBD8DE00E94C0
:1008500087008BE00E94870080916E018F5F8093FC
:100860006E011FBF85E00E94870080E10E94870023
:100870008FE00E9487008EE00E94870050E0E52E06
:1008800050E0F52E90E180E02FEF3FE720FD8F5FF5
:10089000369527959150D1F78170D82FD795DD27C0
:1008A000D79580E0C82F8E010F6F1F6780911A02C5
:1008B0008823C9F08FE291E00E94740240E16FEF5B
:1008C0007FE380E090E00E94810288E391E00E9453
:1008D0007402B80190E080E042E00E9481028CE264
:1008E00091E00E94740290911C0280911D029CBDB7
:1008F0008DBD60E0809115020E948601C8010E94B2
:10090000570261E0809115020E94860160911B02EE
:1009100070E090E080E00E94F70160E080911502B5
:100920000E94860190E080E00E9457028C0161E005
:10093000809115020E94860180911A02882371F02D
:100940008BE491E00E947402B80190E080E042E004
:100950000E9481028CE291E00E94740216FF25C081
:1009600080911A02882341F08BE591E00E94740285
:100970008CE291E00E94740281E080931602109153
:100980000001612F80E10E94860181E01827109309
:100990000001E114F10409F475CF0E94720188236B
:1009A00009F470CF0E9400006DCF10921602E7CFBD
:1009B000A1E21A2EAA1BBB1BFD010DC0AA1FBB1F63
:1009C000EE1FFF1FA217B307E407F50720F0A21BD5
:1009D000B30BE40BF50B661F771F881F991F1A9442
:1009E00069F760957095809590959B01AC01BD016C
:1009F000CF010895EE0FFF1F0590F491E02D0994AB
:040A0000F894FFCF98
:100A0400010000000005012A02A6005201D700B52A
:100A140000C9004153353034384120776F726B6917
:100A24006E67207769746820415652000D0A00529F
:100A34006561642028307800292077697468206310
:100A44006F6D6D616E643A2030620052656164209E
:100A540072657475726E65643A20005365747469C6
:0E0A64006E67206572726F7220626974000006
:00000001FF
