:100000000C945D000C9485000C9485000C94850084
:100010000C9485000C9485000C9485000C9485004C
:100020000C9485000C9485000C9485000C9485003C
:100030000C9485000C9485000C9485000C9485002C
:100040000C94C5020C9485000C9435030C940F039A
:100050000C9485000C9485000C9485000C9485000C
:100060000C9485000C94850000000008000201003B
:100070000003040700000000000000000000000072
:10008000250028002B0000000000240027002A0083
:10009000040404040404040402020202020203032E
:1000A0000303030301020408102040800102040836
:1000B0001020010204081020670311241FBECFEF97
:1000C000D8E0DEBFCDBF11E0A0E0B1E0E6E7F0E1AF
:1000D00002C005900D92AC36B107D9F722E0ACE62C
:1000E000B1E001C01D92AE31B207E1F710E0CDE5FD
:1000F000D0E004C02197FE010E941907CC35D1073A
:10010000C9F70E94A1030C9439080C94000090E0F8
:10011000FC01EC55FF4F249180579F4FFC018491C7
:10012000882399F090E0880F991FFC01EA57FF4F50
:10013000A591B491FC01E458FF4F859194918FB73C
:10014000F894EC91E22BEC938FBF089590E0FC01C2
:10015000E859FF4F2491FC01EC55FF4F3491FC010D
:10016000E057FF4FE491EE23C9F0222339F023300A
:1001700001F1A8F4213019F1223029F1F0E0EE0F5D
:10018000FF1FE458FF4FA591B4918FB7F894EC91FD
:10019000611126C030953E233C938FBF08952730D0
:1001A000A9F02830C9F0243049F7809180008F7D74
:1001B00003C0809180008F7780938000DFCF84B56B
:1001C0008F7784BDDBCF84B58F7DFBCF8091B0006E
:1001D0008F778093B000D2CF8091B0008F7DF9CF20
:1001E0003E2BDACF3FB7F89480917401909175015E
:1001F000A0917601B091770126B5A89B05C02F3F4D
:1002000019F00196A11DB11D3FBFBA2FA92F982F3C
:100210008827BC01CD01620F711D811D911D42E037
:10022000660F771F881F991F4A95D1F708958F92FF
:100230009F92AF92BF92CF92DF92EF92FF926B01AB
:100240007C010E94F2004B015C01C114D104E10465
:10025000F104B9F00E94F200681979098A099B0932
:10026000683E73408105910580F321E0C21AD108F0
:10027000E108F10888EE880E83E0981EA11CB11CED
:10028000E4CFFF90EF90DF90CF90BF90AF909F9022
:100290008F900895AF92BF92CF92DF92EF92FF922C
:1002A0000F931F93CF93DF936C017B018B01040F9E
:1002B000151FEB015E01AE18BF08C017D10759F03A
:1002C0006991D601ED91FC910190F081E02DC6017C
:1002D0000995892B79F7C501DF91CF911F910F9176
:1002E000FF90EF90DF90CF90BF90AF900895FC010A
:1002F000538D448D252F30E0842F90E0821B930B8B
:10030000541710F0CF96089501970895FC01918D30
:10031000828D981761F0A28DAE0FBF2FB11D5D9633
:100320008C91928D9F5F9F73928F90E008958FEFD5
:100330009FEF0895FC01918D828D981731F0828D89
:10034000E80FF11D858D90E008958FEF9FEF0895E0
:10035000FC01918D228D892F90E0805C9F4F821B44
:1003600091098F739927089588E791E00E94A80169
:1003700021E0892B09F420E0822F089580E090E0AD
:10038000892B29F00E94B40181110C94000008957A
:10039000FC01A48DA80FB92FB11DA35ABF4F2C91FA
:1003A000848D90E001968F739927848FA689B789F1
:1003B0002C93A089B1898C91837080648C93938DE8
:1003C000848D981306C00288F389E02D80818F7D8B
:1003D00080830895EF92FF920F931F93CF93DF9343
:1003E000EC0181E0888F9B8D8C8D98131AC0E88971
:1003F000F989808185FF15C09FB7F894EE89FF8940
:100400006083E889F98980818370806480839FBFDD
:1004100081E090E0DF91CF911F910F91FF90EF90DD
:100420000895F62E0B8D10E00F5F1F4F0F731127ED
:10043000E02E8C8D8E110CC00FB607FCFACFE88928
:10044000F989808185FFF5CFCE010E94C801F1CFE7
:10045000EB8DEC0FFD2FF11DE35AFF4FF0829FB79C
:10046000F8940B8FEA89FB8980818062CFCFCF938C
:10047000DF93EC01888D8823B9F0AA89BB89E889CC
:10048000F9898C9185FD03C0808186FD0DC00FB672
:1004900007FCF7CF8C9185FFF2CF808185FFEDCFF0
:1004A000CE010E94C801E9CFDF91CF9108950CB42D
:1004B00005FC0DC09EBD00000DB407FEFDCF9EB52E
:1004C0008EBD00000DB407FEFDCF8EB508958EBD24
:1004D00000000DB407FEFDCF8EB59EBD00000DB42B
:1004E00007FEFDCF9EB50895FC0101900020E9F7BD
:1004F0003197AF01481B590BBC0188E791E00C9480
:100500004A018F929F92AF92BF920F931F93CF9306
:10051000DF93CDB7DEB7A1970FB6F894DEBF0FBE5D
:10052000CDBF19A2423008F44AE08E010F5D1F4F83
:10053000842E912CB12CA12CA50194010E94E106DE
:10054000E62FB901CA01EA30F4F4E05DD801EE9378
:100550008D01232B242B252B79F790E080E0109739
:1005600019F0CD010E947402A1960FB6F894DEBF77
:100570000FBECDBFDF91CF911F910F91BF90AF9074
:100580009F908F900895E95CE1CF1F920F920FB674
:100590000F9211242F933F938F939F93AF93BF9309
:1005A0008091700190917101A0917201B0917301DD
:1005B00030916F0123E0230F2D3758F50196A11DCF
:1005C000B11D20936F018093700190937101A093EE
:1005D0007201B09373018091740190917501A091A3
:1005E0007601B09177010196A11DB11D8093740130
:1005F00090937501A0937601B0937701BF91AF916D
:100600009F918F913F912F910F900FBE0F901F9050
:10061000189526E8230F0296A11DB11DD2CF1F9277
:100620000F920FB60F9211242F933F934F935F9326
:100630006F937F938F939F93AF93BF93EF93FF93AA
:1006400088E791E00E94C801FF91EF91BF91AF91BF
:100650009F918F917F916F915F914F913F912F91DA
:100660000F900FBE0F901F9018951F920F920FB60C
:100670000F9211242F938F939F93EF93FF93E09109
:100680008801F09189018081E0918E01F0918F01C4
:1006900082FD1BC09081809191018F5F8F732091AB
:1006A0009201821741F0E0919101F0E0E858FE4F8D
:1006B000958F80939101FF91EF919F918F912F9151
:1006C0000F900FBE0F901F9018958081F4CFE8E730
:1006D000F1E01382128288EE93E0A0E0B0E0848320
:1006E0009583A683B78384E091E09183808385EC32
:1006F00090E09587848784EC90E09787868780ECEC
:1007000090E0918B808B81EC90E0938B828B82ECDC
:1007100090E0958B848B86EC90E0978B868B118E86
:10072000128E138E148EE5E1F2E089E0808311824F
:1007300012821482138281E0858380E5878310868C
:100740000895789484B5826084BD84B5816084BD49
:1007500085B5826085BD85B5816085BD80916E005F
:10076000816080936E001092810080918100826090
:1007700080938100809181008160809381008091CD
:1007800080008160809380008091B10084608093BC
:10079000B1008091B00081608093B00080917A00B8
:1007A000846080937A0080917A00826080937A00DE
:1007B00080917A00816080937A0080917A008068CD
:1007C00080937A001092C10060ED77E080E090E0C5
:1007D0000E94170185E00E94870010921B02809101
:1007E0001A02882341F082E191E00E9474028BE2B8
:1007F00091E00E94740285E580931C0281E0809361
:100800001D02809115020E948700CFB7F894809155
:100810006C01811124C0EAE9F0E08491EEEAF0E095
:100820009491E82FF0E0EE0FFF1FEA57FF4FA591DC
:10083000B491EC91E92321F461E08AE00E94A600E2
:100840008AE00E9487008CB580618CBD8CB5806485
:100850008CBD8DE00E9487008BE00E948700809114
:100860006C018F5F80936C01CFBFE0918801F091A4
:10087000890182E08083E0918401F09185011082FA
:10088000E0918601F09187018FEC808310929001B6
:10089000E0918C01F0918D0186E08083E0918A01E6
:1008A000F0918B01808180618083E0918A01F091D9
:1008B0008B01808188608083E0918A01F0918B01B7
:1008C000808180688083E0918A01F0918B01808132
:1008D0008F7D808358E6852E99249394A12CB12C8A
:1008E0006DE6C62E60E0D62E70E0E72E70E0F72EA3
:1008F00081E090E020916D0130916E01232B11F089
:1009000090E080E090936E0180936D0190E180E033
:100910002FEF3FE720FD8F5F369527959150D1F758
:100920008170182F17951127179500E0E801CF6FF8
:10093000DF6780911A028823C9F08EE291E00E945D
:10094000740240E16FEF7FE380E090E00E9481025B
:1009500087E391E00E947402BE0190E080E042E0F3
:100960000E9481028BE291E00E94740290911C022D
:1009700080911D029CBD8DBD60E0809115020E949A
:10098000A600CE010E94570261E0809115020E94EC
:10099000A60060911B0270E090E080E00E941701C9
:1009A00060E0809115020E94A60090E080E00E9425
:1009B0005702EC0161E0809115020E94A60080912F
:1009C0001A02882371F08AE491E00E947402BE0149
:1009D00090E080E042E00E9481028BE291E00E9480
:1009E0007402D6FF63C080911A02882341F08AE521
:1009F00091E00E9474028BE291E00E94740281E017
:100A000080931602DF738091180290911902C81B1F
:100A1000D90BBE010D2E000C880B990B0E94A50569
:100A200020E038EF4FEF55E40E943408181614F414
:100A3000CF5FDF43BE01DD0F880B990B0E94A50538
:100A400020E038EF4FEF55E40E94200720E030E02F
:100A500044EB53E40E94040620E038EF4FE756E4ED
:100A60000E948C070E94FE07DB012FEF30E00E94FE
:100A70001207A50194010E94C206722E632EC22F96
:100A8000D32F85E00E948700209799F460E085E0ED
:100A90000E94A600E114F10409F42ACF0E94B401D7
:100AA000882309F425CF0E94000022CF109216025D
:100AB000A9CFCF3FD10511F461E0E9CFF6018491D0
:100AC000833029F140F48130C1F08230D9F0C03850
:100AD000D10594F7DBCF873031F1883061F1843074
:100AE000B1F780918000806280938000872D962DE1
:100AF00090938B0080938A00CDCF84B5806884BDAD
:100B000077BCC8CF84B5806284BD78BCC3CF8091E8
:100B10008000806880938000872D962D90938900B7
:100B200080938800B7CF8091B00080688093B00038
:100B30007092B300AFCF8091B00080628093B0001C
:100B40007092B400A7CFE89409C097FB3EF490954B
:100B50008095709561957F4F8F4F9F4F9923A9F096
:100B6000F92F96E9BB279395F69587957795679525
:100B7000B795F111F8CFFAF4BB0F11F460FF1BC069
:100B80006F5F7F4F8F4F9F4F16C0882311F096E9FC
:100B900011C0772321F09EE8872F762F05C06623AA
:100BA00071F096E8862F70E060E02AF09A95660F63
:100BB000771F881FDAF7880F9695879597F908951C
:100BC000990F0008550FAA0BE0E8FEEF161617065E
:100BD000E807F907C0F012161306E407F50798F0C6
:100BE000621B730B840B950B39F40A2661F0232BDF
:100BF000242B252B21F408950A2609F4A140A6955B
:100C00008FEF811D811D08950E9417060C948806A0
:100C10000E947A0638F00E94810620F0952311F098
:100C20000C9471060C94770611240C94BC060E9457
:100C3000990670F3959FC1F3950F50E0551F629F81
:100C4000F001729FBB27F00DB11D639FAA27F00D25
:100C5000B11DAA1F649F6627B00DA11D661F829F4C
:100C60002227B00DA11D621F739FB00DA11D621F31
:100C7000839FA00D611D221F749F3327A00D611D4E
:100C8000231F849F600D211D822F762F6A2F112430
:100C90009F5750409AF0F1F088234AF0EE0FFF1F63
:100CA000BB1F661F771F881F91505040A9F79E3FBA
:100CB000510580F00C9471060C94BC065F3FE4F380
:100CC000983ED4F3869577956795B795F795E79510
:100CD0009F5FC1F7FE2B880F911D9695879597F919
:100CE000089597F99F6780E870E060E008959FEFAE
:100CF00080EC089500240A941616170618060906B3
:100D0000089500240A941216130614060506089581
:100D1000092E0394000C11F4882352F0BB0F40F409
:100D2000BF2B11F460FF04C06F5F7F4F8F4F9F4F49
:100D3000089557FD9058440F551F59F05F3F71F0CB
:100D40004795880F97FB991F61F09F3F79F0879532
:100D50000895121613061406551FF2CF4695F1DFBB
:100D600008C0161617061806991FF1CF869571054B
:100D7000610508940895E894BB2766277727CB017F
:100D800097F90895052E97FB1EF400940E94D9064A
:100D900057FD07D00E94E10607FC03D04EF40C94E7
:100DA000D90650954095309521953F4F4F4F5F4F55
:100DB000089590958095709561957F4F8F4F9F4FC7
:100DC0000895A1E21A2EAA1BBB1BFD010DC0AA1F8C
:100DD000BB1FEE1FFF1FA217B307E407F50720F0A4
:100DE000A21BB30BE40BF50B661F771F881F991F1F
:100DF0001A9469F760957095809590959B01AC0168
:100E0000BD01CF010895A29FB001B39FC001A39F70
:100E1000700D811D1124911DB29F700D811D112433
:100E2000911D08950E940307B7FF0895821B930B3D
:100E30000895EE0FFF1F0590F491E02D099450588E
:100E4000BB27AA270E9437070C9488060E947A06BF
:100E500038F00E94810620F039F49F3F19F426F4FF
:100E60000C9477060EF4E095E7FB0C947106E92FDD
:100E70000E94990658F3BA1762077307840795070B
:100E800020F079F4A6F50C94BB060EF4E0950B2E39
:100E9000BA2FA02D0B01B90190010C01CA01A001CC
:100EA0001124FF27591B99F0593F50F4503E68F127
:100EB0001A16F040A22F232F342F4427585FF3CF68
:100EC000469537952795A795F0405395C9F77EF439
:100ED0001F16BA0B620B730B840BBAF09150A1F082
:100EE000FF0FBB1F661F771F881FC2F70EC0BA0F08
:100EF000621F731F841F48F4879577956795B79590
:100F0000F7959E3F08F0B0CF9395880F08F099278A
:100F1000EE0F9795879508950E94A0070C94880678
:100F20000E94810658F00E947A0640F029F45F3F43
:100F300029F00C94710651110C94BC060C947706A0
:100F40000E94990668F39923B1F3552391F3951BF9
:100F5000550BBB27AA2762177307840738F09F5FDA
:100F60005F4F220F331F441FAA1FA9F335D00E2E47
:100F70003AF0E0E832D091505040E695001CCAF7B4
:100F80002BD0FE2F29D0660F771F881FBB1F261777
:100F900037074807AB07B0E809F0BB0B802DBF014E
:100FA000FF2793585F4F3AF09E3F510578F00C941D
:100FB00071060C94BC065F3FE4F3983ED4F386952B
:100FC00077956795B795F7959F5FC9F7880F911D3E
:100FD0009695879597F90895E1E0660F771F881F2A
:100FE000BB1F621773078407BA0720F0621B730BDD
:100FF000840BBA0BEE1F88F7E09508950E94050850
:101000006894B1110C94BC0608950E94A10688F062
:101010009F5798F0B92F9927B751B0F0E1F0660FBC
:10102000771F881F991F1AF0BA95C9F714C0B130FD
:1010300091F00E94BB06B1E008950C94BB06672FA7
:10104000782F8827B85F39F0B93FCCF3869577952C
:101050006795B395D9F73EF4909580957095619515
:101060007F4F8F4F9F4F08950E94E00508F48FEF48
:061070000895F894FFCF83
:1010760000000000EA014A0177013702A801860153
:101086009A014153353034384120776F726B696E5F
:1010960067207769746820415652000D0A00526530
:1010A6006164202830780029207769746820636F8E
:1010B6006D6D616E643A2030620052656164207223
:1010C600657475726E65643A200053657474696E52
:0C10D60067206572726F722062697400FE
:00000001FF
